{
  "contractName": "BlockVideo",
  "abi": [
    {
      "inputs": [],
      "payable": false,
      "stateMutability": "nonpayable",
      "type": "constructor"
    },
    {
      "anonymous": false,
      "inputs": [
        {
          "indexed": false,
          "internalType": "uint256",
          "name": "id",
          "type": "uint256"
        },
        {
          "indexed": false,
          "internalType": "string",
          "name": "hash",
          "type": "string"
        },
        {
          "indexed": false,
          "internalType": "string",
          "name": "title",
          "type": "string"
        },
        {
          "indexed": false,
          "internalType": "address",
          "name": "author",
          "type": "address"
        }
      ],
      "name": "VideoUploaded",
      "type": "event"
    },
    {
      "constant": true,
      "inputs": [],
      "name": "countLikeStruct",
      "outputs": [
        {
          "internalType": "uint256",
          "name": "",
          "type": "uint256"
        }
      ],
      "payable": false,
      "stateMutability": "view",
      "type": "function"
    },
    {
      "constant": true,
      "inputs": [],
      "name": "countVideoStruct",
      "outputs": [
        {
          "internalType": "uint256",
          "name": "",
          "type": "uint256"
        }
      ],
      "payable": false,
      "stateMutability": "view",
      "type": "function"
    },
    {
      "constant": true,
      "inputs": [
        {
          "internalType": "uint256",
          "name": "",
          "type": "uint256"
        }
      ],
      "name": "likes",
      "outputs": [
        {
          "internalType": "uint256",
          "name": "id",
          "type": "uint256"
        },
        {
          "internalType": "string",
          "name": "hash",
          "type": "string"
        },
        {
          "internalType": "address",
          "name": "user",
          "type": "address"
        }
      ],
      "payable": false,
      "stateMutability": "view",
      "type": "function"
    },
    {
      "constant": true,
      "inputs": [],
      "name": "name",
      "outputs": [
        {
          "internalType": "string",
          "name": "",
          "type": "string"
        }
      ],
      "payable": false,
      "stateMutability": "view",
      "type": "function"
    },
    {
      "constant": true,
      "inputs": [
        {
          "internalType": "uint256",
          "name": "",
          "type": "uint256"
        }
      ],
      "name": "videos",
      "outputs": [
        {
          "internalType": "uint256",
          "name": "id",
          "type": "uint256"
        },
        {
          "internalType": "string",
          "name": "hash",
          "type": "string"
        },
        {
          "internalType": "string",
          "name": "title",
          "type": "string"
        },
        {
          "internalType": "address",
          "name": "author",
          "type": "address"
        },
        {
          "internalType": "uint256",
          "name": "videoLikesCount",
          "type": "uint256"
        }
      ],
      "payable": false,
      "stateMutability": "view",
      "type": "function"
    },
    {
      "constant": false,
      "inputs": [
        {
          "internalType": "string",
          "name": "_hash",
          "type": "string"
        },
        {
          "internalType": "string",
          "name": "_title",
          "type": "string"
        }
      ],
      "name": "uploadVideo",
      "outputs": [],
      "payable": false,
      "stateMutability": "nonpayable",
      "type": "function"
    },
    {
      "constant": false,
      "inputs": [
        {
          "internalType": "string",
          "name": "_videoHash",
          "type": "string"
        }
      ],
      "name": "addLikeToVideo",
      "outputs": [],
      "payable": false,
      "stateMutability": "nonpayable",
      "type": "function"
    }
  ],
  "bytecode": "0x60806040526000805560006001556040518060400160405280600a81526020017f426c6f636b566964656f000000000000000000000000000000000000000000008152506002908051906020019061005892919061006b565b5034801561006557600080fd5b50610110565b828054600181600116156101000203166002900490600052602060002090601f016020900481019282601f106100ac57805160ff19168380011785556100da565b828001600101855582156100da579182015b828111156100d95782518255916020019190600101906100be565b5b5090506100e791906100eb565b5090565b61010d91905b808211156101095760008160009055506001016100f1565b5090565b90565b610e288061011f6000396000f3fe608060405234801561001057600080fd5b506004361061007d5760003560e01c80638d28e0521161005b5780638d28e05214610338578063e6821bf514610356578063f1b00625146104aa578063f68d4b50146104c85761007d565b806306fdde03146100825780637e9dffe6146101055780638a5447c5146101e6575b600080fd5b61008a610583565b6040518080602001828103825283818151815260200191508051906020019080838360005b838110156100ca5780820151818401526020810190506100af565b50505050905090810190601f1680156100f75780820380516001836020036101000a031916815260200191505b509250505060405180910390f35b6101316004803603602081101561011b57600080fd5b8101908080359060200190929190505050610621565b60405180848152602001806020018373ffffffffffffffffffffffffffffffffffffffff1673ffffffffffffffffffffffffffffffffffffffff168152602001828103825284818151815260200191508051906020019080838360005b838110156101a957808201518184015260208101905061018e565b50505050905090810190601f1680156101d65780820380516001836020036101000a031916815260200191505b5094505050505060405180910390f35b610336600480360360408110156101fc57600080fd5b810190808035906020019064010000000081111561021957600080fd5b82018360208201111561022b57600080fd5b8035906020019184600183028401116401000000008311171561024d57600080fd5b91908080601f016020809104026020016040519081016040528093929190818152602001838380828437600081840152601f19601f820116905080830192505050505050509192919290803590602001906401000000008111156102b057600080fd5b8201836020820111156102c257600080fd5b803590602001918460018302840111640100000000831117156102e457600080fd5b91908080601f016020809104026020016040519081016040528093929190818152602001838380828437600081840152601f19601f820116905080830192505050505050509192919290505050610703565b005b610340610a11565b6040518082815260200191505060405180910390f35b6103826004803603602081101561036c57600080fd5b8101908080359060200190929190505050610a17565b6040518086815260200180602001806020018573ffffffffffffffffffffffffffffffffffffffff1673ffffffffffffffffffffffffffffffffffffffff168152602001848152602001838103835287818151815260200191508051906020019080838360005b838110156104045780820151818401526020810190506103e9565b50505050905090810190601f1680156104315780820380516001836020036101000a031916815260200191505b50838103825286818151815260200191508051906020019080838360005b8381101561046a57808201518184015260208101905061044f565b50505050905090810190601f1680156104975780820380516001836020036101000a031916815260200191505b5097505050505050505060405180910390f35b6104b2610b9d565b6040518082815260200191505060405180910390f35b610581600480360360208110156104de57600080fd5b81019080803590602001906401000000008111156104fb57600080fd5b82018360208201111561050d57600080fd5b8035906020019184600183028401116401000000008311171561052f57600080fd5b91908080601f016020809104026020016040519081016040528093929190818152602001838380828437600081840152601f19601f820116905080830192505050505050509192919290505050610ba3565b005b60028054600181600116156101000203166002900480601f0160208091040260200160405190810160405280929190818152602001828054600181600116156101000203166002900480156106195780601f106105ee57610100808354040283529160200191610619565b820191906000526020600020905b8154815290600101906020018083116105fc57829003601f168201915b505050505081565b6004602052806000526040600020600091509050806000015490806001018054600181600116156101000203166002900480601f0160208091040260200160405190810160405280929190818152602001828054600181600116156101000203166002900480156106d35780601f106106a8576101008083540402835291602001916106d3565b820191906000526020600020905b8154815290600101906020018083116106b657829003601f168201915b5050505050908060020160009054906101000a900473ffffffffffffffffffffffffffffffffffffffff16905083565b600082511161071157600080fd5b600081511161071f57600080fd5b600073ffffffffffffffffffffffffffffffffffffffff163373ffffffffffffffffffffffffffffffffffffffff16141561075957600080fd5b60008081548092919060010191905055506040518060a0016040528060005481526020018381526020018281526020013373ffffffffffffffffffffffffffffffffffffffff168152602001600081525060036000805481526020019081526020016000206000820151816000015560208201518160010190805190602001906107e4929190610d4e565b506040820151816002019080519060200190610801929190610d4e565b5060608201518160030160006101000a81548173ffffffffffffffffffffffffffffffffffffffff021916908373ffffffffffffffffffffffffffffffffffffffff160217905550608082015181600401559050506000546005836040518082805190602001908083835b6020831061088f578051825260208201915060208101905060208303925061086c565b6001836020036101000a0380198251168184511680821785525050505050509050019150509081526020016040518091039020819055507f2c44b862f4b4e08a26a765f9499900759a9ec95360a6f174d53163bd5d367f676000548383336040518085815260200180602001806020018473ffffffffffffffffffffffffffffffffffffffff1673ffffffffffffffffffffffffffffffffffffffff168152602001838103835286818151815260200191508051906020019080838360005b8381101561096957808201518184015260208101905061094e565b50505050905090810190601f1680156109965780820380516001836020036101000a031916815260200191505b50838103825285818151815260200191508051906020019080838360005b838110156109cf5780820151818401526020810190506109b4565b50505050905090810190601f1680156109fc5780820380516001836020036101000a031916815260200191505b50965050505050505060405180910390a15050565b60005481565b6003602052806000526040600020600091509050806000015490806001018054600181600116156101000203166002900480601f016020809104026020016040519081016040528092919081815260200182805460018160011615610100020316600290048015610ac95780601f10610a9e57610100808354040283529160200191610ac9565b820191906000526020600020905b815481529060010190602001808311610aac57829003601f168201915b505050505090806002018054600181600116156101000203166002900480601f016020809104026020016040519081016040528092919081815260200182805460018160011615610100020316600290048015610b675780601f10610b3c57610100808354040283529160200191610b67565b820191906000526020600020905b815481529060010190602001808311610b4a57829003601f168201915b5050505050908060030160009054906101000a900473ffffffffffffffffffffffffffffffffffffffff16908060040154905085565b60015481565b6000815111610bb157600080fd5b600073ffffffffffffffffffffffffffffffffffffffff163373ffffffffffffffffffffffffffffffffffffffff161415610beb57600080fd5b600160008154809291906001019190505550604051806060016040528060015481526020018281526020013373ffffffffffffffffffffffffffffffffffffffff16815250600460006001548152602001908152602001600020600082015181600001556020820151816001019080519060200190610c6b929190610d4e565b5060408201518160020160006101000a81548173ffffffffffffffffffffffffffffffffffffffff021916908373ffffffffffffffffffffffffffffffffffffffff16021790555090505060006005826040518082805190602001908083835b60208310610cee5780518252602082019150602081019050602083039250610ccb565b6001836020036101000a038019825116818451168082178552505050505050905001915050908152602001604051809103902054905060036000828152602001908152602001600020600401600081548092919060010191905055505050565b828054600181600116156101000203166002900490600052602060002090601f016020900481019282601f10610d8f57805160ff1916838001178555610dbd565b82800160010185558215610dbd579182015b82811115610dbc578251825591602001919060010190610da1565b5b509050610dca9190610dce565b5090565b610df091905b80821115610dec576000816000905550600101610dd4565b5090565b9056fea265627a7a72315820c37904d55b517501f84d5bc90d8e626e51b732e05c7965fbc8268e6efcd3e3b864736f6c63430005100032",
  "source": "pragma solidity ^0.5.0;\n\ncontract BlockVideo {\n  uint public countVideoStruct = 0;\n  uint public countLikeStruct = 0;\n\n  string public name = \"BlockVideo\";\n  mapping(uint => Video) public videos;\n  mapping(uint => Like) public likes;\n\n  mapping(string => uint) getVideoIdFromHash;\n\n\tstruct Like {\n\t\tuint id;\n    string hash;\n\t\taddress user;\n  }\n\n  struct Video {\n    uint id;\n    string hash;\n    string title;\n    address author;\n    uint videoLikesCount;\n    // VideoLike videoLikes;\n    // mapping (uint => VideoLike) videoLikes;\n  }\n\n  event VideoUploaded (\n    uint id,\n    string hash,\n    string title,\n    address author\n  );\n\n\n  constructor() public {\n  }\n\n  function uploadVideo(string memory _hash, string memory _title) public {\n    // Make sure the video hash exists\n    require(bytes(_hash).length > 0);\n    // Make sure video title exists\n    require(bytes(_title).length > 0);\n    // Make sure uploader address exists -> address(0) = empty address\n    require(msg.sender != address(0));\n\n\n    countVideoStruct++;\n    videos[countVideoStruct] = Video(countVideoStruct, _hash, _title, msg.sender, 0);\n    getVideoIdFromHash[_hash] = countVideoStruct;\n\n    emit VideoUploaded(countVideoStruct, _hash, _title, msg.sender);\n  }\n\n  function addLikeToVideo(string memory _videoHash) public {\n    require(bytes(_videoHash).length > 0);\n    require(msg.sender != address(0));\n\n    countLikeStruct++;\n    likes[countLikeStruct] = Like(countLikeStruct, _videoHash, msg.sender);\n\n\t\tuint videoId = getVideoIdFromHash[_videoHash];\n\t\tvideos[videoId].videoLikesCount++;\n\t\t// videos[videoId].videoLikes[videos[videoId].videoLikesCount] = VideoLike(videos[videoId].videoLikesCount, msg.sender);\n\t}\n}\n",
  "sourcePath": "/Users/bambokian/Documents/COMP21/4sem/CES27/blocktube/src/contracts/BlockVideo.sol",
  "compiler": {
    "name": "solc",
    "version": "0.5.16+commit.9c3226ce.Emscripten.clang"
  },
  "schemaVersion": "3.2.3",
  "updatedAt": "2020-12-12T04:34:06.214Z",
  "networkType": "ethereum",
  "devdoc": {
    "methods": {}
  },
  "userdoc": {
    "methods": {}
  }
}